{
  "_format": "hh-sol-artifact-1",
  "contractName": "BarterXmarketPlace",
  "address": "0x06fBf3f9F91e0CA8DB0d377f39E8c317C31413B9",
  "sourceName": "contracts/MarketPlace.sol",
  "abi": [
    {
      "inputs": [
        {
          "internalType": "address",
          "name": "_brtxToken",
          "type": "address"
        }
      ],
      "stateMutability": "nonpayable",
      "type": "constructor"
    },
    {
      "anonymous": false,
      "inputs": [
        {
          "indexed": false,
          "internalType": "uint256",
          "name": "orderId",
          "type": "uint256"
        }
      ],
      "name": "OrderDelivered",
      "type": "event"
    },
    {
      "anonymous": false,
      "inputs": [
        {
          "indexed": false,
          "internalType": "uint256",
          "name": "orderId",
          "type": "uint256"
        },
        {
          "indexed": false,
          "internalType": "uint256",
          "name": "amountPaid",
          "type": "uint256"
        }
      ],
      "name": "OrderPaid",
      "type": "event"
    },
    {
      "anonymous": false,
      "inputs": [
        {
          "indexed": false,
          "internalType": "uint256",
          "name": "orderId",
          "type": "uint256"
        },
        {
          "indexed": false,
          "internalType": "uint256",
          "name": "productId",
          "type": "uint256"
        },
        {
          "indexed": false,
          "internalType": "address",
          "name": "buyer",
          "type": "address"
        },
        {
          "indexed": false,
          "internalType": "address",
          "name": "seller",
          "type": "address"
        },
        {
          "indexed": false,
          "internalType": "bool",
          "name": "isPaid",
          "type": "bool"
        }
      ],
      "name": "OrderPlaced",
      "type": "event"
    },
    {
      "inputs": [],
      "name": "OrderCount",
      "outputs": [
        {
          "internalType": "uint256",
          "name": "",
          "type": "uint256"
        }
      ],
      "stateMutability": "view",
      "type": "function"
    },
    {
      "inputs": [],
      "name": "ProductCount",
      "outputs": [
        {
          "internalType": "uint256",
          "name": "",
          "type": "uint256"
        }
      ],
      "stateMutability": "view",
      "type": "function"
    },
    {
      "inputs": [
        {
          "internalType": "uint256",
          "name": "price",
          "type": "uint256"
        },
        {
          "internalType": "uint256",
          "name": "stock",
          "type": "uint256"
        },
        {
          "internalType": "bytes32",
          "name": "name",
          "type": "bytes32"
        },
        {
          "internalType": "bytes",
          "name": "image",
          "type": "bytes"
        },
        {
          "internalType": "bytes",
          "name": "description",
          "type": "bytes"
        },
        {
          "internalType": "bytes32",
          "name": "productType",
          "type": "bytes32"
        },
        {
          "internalType": "bytes32",
          "name": "condition",
          "type": "bytes32"
        }
      ],
      "name": "addProduct",
      "outputs": [
        {
          "internalType": "uint256",
          "name": "",
          "type": "uint256"
        }
      ],
      "stateMutability": "nonpayable",
      "type": "function"
    },
    {
      "inputs": [],
      "name": "brtx",
      "outputs": [
        {
          "internalType": "contract BRTX",
          "name": "",
          "type": "address"
        }
      ],
      "stateMutability": "view",
      "type": "function"
    },
    {
      "inputs": [
        {
          "internalType": "uint256",
          "name": "_id",
          "type": "uint256"
        },
        {
          "internalType": "bool",
          "name": "_isPrepaid",
          "type": "bool"
        }
      ],
      "name": "buyProduct",
      "outputs": [],
      "stateMutability": "nonpayable",
      "type": "function"
    },
    {
      "inputs": [
        {
          "internalType": "uint256",
          "name": "_orderId",
          "type": "uint256"
        }
      ],
      "name": "confirmDelivery",
      "outputs": [],
      "stateMutability": "nonpayable",
      "type": "function"
    },
    {
      "inputs": [
        {
          "internalType": "uint256",
          "name": "_orderId",
          "type": "uint256"
        }
      ],
      "name": "getOrderDetails",
      "outputs": [
        {
          "internalType": "address",
          "name": "seller",
          "type": "address"
        },
        {
          "internalType": "uint256",
          "name": "price",
          "type": "uint256"
        }
      ],
      "stateMutability": "view",
      "type": "function"
    },
    {
      "inputs": [
        {
          "internalType": "uint256",
          "name": "",
          "type": "uint256"
        }
      ],
      "name": "orders",
      "outputs": [
        {
          "internalType": "uint256",
          "name": "productId",
          "type": "uint256"
        },
        {
          "internalType": "uint256",
          "name": "amountPaid",
          "type": "uint256"
        },
        {
          "internalType": "address",
          "name": "buyer",
          "type": "address"
        },
        {
          "internalType": "address",
          "name": "seller",
          "type": "address"
        },
        {
          "internalType": "bool",
          "name": "isPaid",
          "type": "bool"
        },
        {
          "internalType": "bool",
          "name": "isDelivered",
          "type": "bool"
        }
      ],
      "stateMutability": "view",
      "type": "function"
    },
    {
      "inputs": [
        {
          "internalType": "uint256",
          "name": "",
          "type": "uint256"
        }
      ],
      "name": "store",
      "outputs": [
        {
          "internalType": "uint256",
          "name": "price",
          "type": "uint256"
        },
        {
          "internalType": "uint256",
          "name": "stock",
          "type": "uint256"
        },
        {
          "internalType": "bytes32",
          "name": "name",
          "type": "bytes32"
        },
        {
          "internalType": "bytes",
          "name": "description",
          "type": "bytes"
        },
        {
          "internalType": "bytes",
          "name": "image",
          "type": "bytes"
        },
        {
          "internalType": "bytes32",
          "name": "productType",
          "type": "bytes32"
        },
        {
          "internalType": "bytes32",
          "name": "condition",
          "type": "bytes32"
        },
        {
          "internalType": "address",
          "name": "seller",
          "type": "address"
        }
      ],
      "stateMutability": "view",
      "type": "function"
    }
  ],
  "bytecode": "0x60a06040526001600255600160035534801561001a57600080fd5b50604051611c2e380380611c2e833981810160405281019061003c91906100d9565b8073ffffffffffffffffffffffffffffffffffffffff1660808173ffffffffffffffffffffffffffffffffffffffff168152505050610106565b600080fd5b600073ffffffffffffffffffffffffffffffffffffffff82169050919050565b60006100a68261007b565b9050919050565b6100b68161009b565b81146100c157600080fd5b50565b6000815190506100d3816100ad565b92915050565b6000602082840312156100ef576100ee610076565b5b60006100fd848285016100c4565b91505092915050565b608051611aff61012f60003960008181610400015281816104df0152610a3a0152611aff6000f3fe608060405234801561001057600080fd5b50600436106100935760003560e01c8063a85c38ef11610066578063a85c38ef14610127578063b38d34711461015c578063cc86bb481461017a578063ec7dd7bb146101aa578063fd84cb97146101db57610093565b80634f67c624146100985780636057361d146100b6578063646a541f146100ed57806386970e551461010b575b600080fd5b6100a06101f7565b6040516100ad9190610dc1565b60405180910390f35b6100d060048036038101906100cb9190610e1c565b6101fd565b6040516100e4989796959493929190610f33565b60405180910390f35b6100f5610375565b6040516101029190610dc1565b60405180910390f35b61012560048036038101906101209190610ff7565b61037b565b005b610141600480360381019061013c9190610e1c565b6109a2565b60405161015396959493929190611046565b60405180910390f35b610164610a38565b6040516101719190611106565b60405180910390f35b610194600480360381019061018f9190611282565b610a5c565b6040516101a19190610dc1565b60405180910390f35b6101c460048036038101906101bf9190610e1c565b610b86565b6040516101d292919061135c565b60405180910390f35b6101f560048036038101906101f09190610e1c565b610bef565b005b60025481565b6000602052806000526040600020600091509050806000015490806001015490806002015490806003018054610232906113b4565b80601f016020809104026020016040519081016040528092919081815260200182805461025e906113b4565b80156102ab5780601f10610280576101008083540402835291602001916102ab565b820191906000526020600020905b81548152906001019060200180831161028e57829003601f168201915b5050505050908060040180546102c0906113b4565b80601f01602080910402602001604051908101604052809291908181526020018280546102ec906113b4565b80156103395780601f1061030e57610100808354040283529160200191610339565b820191906000526020600020905b81548152906001019060200180831161031c57829003601f168201915b5050505050908060050154908060060154908060070160009054906101000a900473ffffffffffffffffffffffffffffffffffffffff16905088565b60035481565b6000806000848152602001908152602001600020905060008160010154116103d8576040517f08c379a00000000000000000000000000000000000000000000000000000000081526004016103cf90611442565b60405180910390fd5b6000600360008154809291906103ed90611491565b91905055905082156107a95781600001547f000000000000000000000000000000000000000000000000000000000000000073ffffffffffffffffffffffffffffffffffffffff1663dd62ed3e33306040518363ffffffff1660e01b81526004016104599291906114d9565b602060405180830381865afa158015610476573d6000803e3d6000fd5b505050506040513d601f19601f8201168201806040525081019061049a9190611517565b10156104db576040517f08c379a00000000000000000000000000000000000000000000000000000000081526004016104d290611590565b60405180910390fd5b60007f000000000000000000000000000000000000000000000000000000000000000073ffffffffffffffffffffffffffffffffffffffff166323b872dd338560070160009054906101000a900473ffffffffffffffffffffffffffffffffffffffff1686600001546040518463ffffffff1660e01b8152600401610562939291906115b0565b6020604051808303816000875af1158015610581573d6000803e3d6000fd5b505050506040513d601f19601f820116820180604052508101906105a591906115fc565b9050806105e7576040517f08c379a00000000000000000000000000000000000000000000000000000000081526004016105de90611675565b60405180910390fd5b6040518060c00160405280868152602001846000015481526020013373ffffffffffffffffffffffffffffffffffffffff1681526020018460070160009054906101000a900473ffffffffffffffffffffffffffffffffffffffff1673ffffffffffffffffffffffffffffffffffffffff1681526020016001151581526020016000151581525060016000848152602001908152602001600020600082015181600001556020820151816001015560408201518160020160006101000a81548173ffffffffffffffffffffffffffffffffffffffff021916908373ffffffffffffffffffffffffffffffffffffffff16021790555060608201518160030160006101000a81548173ffffffffffffffffffffffffffffffffffffffff021916908373ffffffffffffffffffffffffffffffffffffffff16021790555060808201518160030160146101000a81548160ff02191690831515021790555060a08201518160030160156101000a81548160ff0219169083151502179055509050507f7c32ca00142334d942c919d338fa31921d5108c316aebd0347bcda69ee8167c982846000015460405161079b929190611695565b60405180910390a150610926565b6040518060c00160405280858152602001600081526020013373ffffffffffffffffffffffffffffffffffffffff1681526020018360070160009054906101000a900473ffffffffffffffffffffffffffffffffffffffff1673ffffffffffffffffffffffffffffffffffffffff1681526020016000151581526020016000151581525060016000838152602001908152602001600020600082015181600001556020820151816001015560408201518160020160006101000a81548173ffffffffffffffffffffffffffffffffffffffff021916908373ffffffffffffffffffffffffffffffffffffffff16021790555060608201518160030160006101000a81548173ffffffffffffffffffffffffffffffffffffffff021916908373ffffffffffffffffffffffffffffffffffffffff16021790555060808201518160030160146101000a81548160ff02191690831515021790555060a08201518160030160156101000a81548160ff0219169083151502179055509050505b816001016000815460019003919050819055507f64156f76536e4f3aaa5ca6746dfbe8d60ee46607c88f03afd22201d9a3eabc418185338560070160009054906101000a900473ffffffffffffffffffffffffffffffffffffffff16876040516109949594939291906116be565b60405180910390a150505050565b60016020528060005260406000206000915090508060000154908060010154908060020160009054906101000a900473ffffffffffffffffffffffffffffffffffffffff16908060030160009054906101000a900473ffffffffffffffffffffffffffffffffffffffff16908060030160149054906101000a900460ff16908060030160159054906101000a900460ff16905086565b7f000000000000000000000000000000000000000000000000000000000000000081565b60006040518061010001604052808981526020018881526020018781526020018581526020018681526020018481526020018381526020013373ffffffffffffffffffffffffffffffffffffffff1681525060008060025481526020019081526020016000206000820151816000015560208201518160010155604082015181600201556060820151816003019081610af591906118b3565b506080820151816004019081610b0b91906118b3565b5060a0820151816005015560c0820151816006015560e08201518160070160006101000a81548173ffffffffffffffffffffffffffffffffffffffff021916908373ffffffffffffffffffffffffffffffffffffffff1602179055509050506002600081546001019190508190559050979650505050505050565b600080600060016000858152602001908152602001600020905060008060008360000154815260200190815260200160002090508160030160009054906101000a900473ffffffffffffffffffffffffffffffffffffffff168160000154935093505050915091565b60006001600083815260200190815260200160002090508060030160149054906101000a900460ff16610c57576040517f08c379a0000000000000000000000000000000000000000000000000000000008152600401610c4e906119d1565b60405180910390fd5b8060030160159054906101000a900460ff1615610ca9576040517f08c379a0000000000000000000000000000000000000000000000000000000008152600401610ca090611a3d565b60405180910390fd5b6000808260000154815260200190815260200160002060070160009054906101000a900473ffffffffffffffffffffffffffffffffffffffff1673ffffffffffffffffffffffffffffffffffffffff163373ffffffffffffffffffffffffffffffffffffffff1614610d50576040517f08c379a0000000000000000000000000000000000000000000000000000000008152600401610d4790611aa9565b60405180910390fd5b60018160030160156101000a81548160ff0219169083151502179055507fe21fe02c1589242b30be2057f54fd54b7ddc463695d19ffdb54f9ebb0584f24a82604051610d9c9190610dc1565b60405180910390a15050565b6000819050919050565b610dbb81610da8565b82525050565b6000602082019050610dd66000830184610db2565b92915050565b6000604051905090565b600080fd5b600080fd5b610df981610da8565b8114610e0457600080fd5b50565b600081359050610e1681610df0565b92915050565b600060208284031215610e3257610e31610de6565b5b6000610e4084828501610e07565b91505092915050565b6000819050919050565b610e5c81610e49565b82525050565b600081519050919050565b600082825260208201905092915050565b60005b83811015610e9c578082015181840152602081019050610e81565b60008484015250505050565b6000601f19601f8301169050919050565b6000610ec482610e62565b610ece8185610e6d565b9350610ede818560208601610e7e565b610ee781610ea8565b840191505092915050565b600073ffffffffffffffffffffffffffffffffffffffff82169050919050565b6000610f1d82610ef2565b9050919050565b610f2d81610f12565b82525050565b600061010082019050610f49600083018b610db2565b610f56602083018a610db2565b610f636040830189610e53565b8181036060830152610f758188610eb9565b90508181036080830152610f898187610eb9565b9050610f9860a0830186610e53565b610fa560c0830185610e53565b610fb260e0830184610f24565b9998505050505050505050565b60008115159050919050565b610fd481610fbf565b8114610fdf57600080fd5b50565b600081359050610ff181610fcb565b92915050565b6000806040838503121561100e5761100d610de6565b5b600061101c85828601610e07565b925050602061102d85828601610fe2565b9150509250929050565b61104081610fbf565b82525050565b600060c08201905061105b6000830189610db2565b6110686020830188610db2565b6110756040830187610f24565b6110826060830186610f24565b61108f6080830185611037565b61109c60a0830184611037565b979650505050505050565b6000819050919050565b60006110cc6110c76110c284610ef2565b6110a7565b610ef2565b9050919050565b60006110de826110b1565b9050919050565b60006110f0826110d3565b9050919050565b611100816110e5565b82525050565b600060208201905061111b60008301846110f7565b92915050565b61112a81610e49565b811461113557600080fd5b50565b60008135905061114781611121565b92915050565b600080fd5b600080fd5b7f4e487b7100000000000000000000000000000000000000000000000000000000600052604160045260246000fd5b61118f82610ea8565b810181811067ffffffffffffffff821117156111ae576111ad611157565b5b80604052505050565b60006111c1610ddc565b90506111cd8282611186565b919050565b600067ffffffffffffffff8211156111ed576111ec611157565b5b6111f682610ea8565b9050602081019050919050565b82818337600083830152505050565b6000611225611220846111d2565b6111b7565b90508281526020810184848401111561124157611240611152565b5b61124c848285611203565b509392505050565b600082601f8301126112695761126861114d565b5b8135611279848260208601611212565b91505092915050565b600080600080600080600060e0888a0312156112a1576112a0610de6565b5b60006112af8a828b01610e07565b97505060206112c08a828b01610e07565b96505060406112d18a828b01611138565b955050606088013567ffffffffffffffff8111156112f2576112f1610deb565b5b6112fe8a828b01611254565b945050608088013567ffffffffffffffff81111561131f5761131e610deb565b5b61132b8a828b01611254565b93505060a061133c8a828b01611138565b92505060c061134d8a828b01611138565b91505092959891949750929550565b60006040820190506113716000830185610f24565b61137e6020830184610db2565b9392505050565b7f4e487b7100000000000000000000000000000000000000000000000000000000600052602260045260246000fd5b600060028204905060018216806113cc57607f821691505b6020821081036113df576113de611385565b5b50919050565b600082825260208201905092915050565b7f4f7574206f662073746f636b0000000000000000000000000000000000000000600082015250565b600061142c600c836113e5565b9150611437826113f6565b602082019050919050565b6000602082019050818103600083015261145b8161141f565b9050919050565b7f4e487b7100000000000000000000000000000000000000000000000000000000600052601160045260246000fd5b600061149c82610da8565b91507fffffffffffffffffffffffffffffffffffffffffffffffffffffffffffffffff82036114ce576114cd611462565b5b600182019050919050565b60006040820190506114ee6000830185610f24565b6114fb6020830184610f24565b9392505050565b60008151905061151181610df0565b92915050565b60006020828403121561152d5761152c610de6565b5b600061153b84828501611502565b91505092915050565b7f416c6c6f77616e636520746f6f206c6f77000000000000000000000000000000600082015250565b600061157a6011836113e5565b915061158582611544565b602082019050919050565b600060208201905081810360008301526115a98161156d565b9050919050565b60006060820190506115c56000830186610f24565b6115d26020830185610f24565b6115df6040830184610db2565b949350505050565b6000815190506115f681610fcb565b92915050565b60006020828403121561161257611611610de6565b5b6000611620848285016115e7565b91505092915050565b7f5472616e73666572206661696c65640000000000000000000000000000000000600082015250565b600061165f600f836113e5565b915061166a82611629565b602082019050919050565b6000602082019050818103600083015261168e81611652565b9050919050565b60006040820190506116aa6000830185610db2565b6116b76020830184610db2565b9392505050565b600060a0820190506116d36000830188610db2565b6116e06020830187610db2565b6116ed6040830186610f24565b6116fa6060830185610f24565b6117076080830184611037565b9695505050505050565b60008190508160005260206000209050919050565b60006020601f8301049050919050565b600082821b905092915050565b6000600883026117737fffffffffffffffffffffffffffffffffffffffffffffffffffffffffffffffff82611736565b61177d8683611736565b95508019841693508086168417925050509392505050565b60006117b06117ab6117a684610da8565b6110a7565b610da8565b9050919050565b6000819050919050565b6117ca83611795565b6117de6117d6826117b7565b848454611743565b825550505050565b600090565b6117f36117e6565b6117fe8184846117c1565b505050565b5b81811015611822576118176000826117eb565b600181019050611804565b5050565b601f8211156118675761183881611711565b61184184611726565b81016020851015611850578190505b61186461185c85611726565b830182611803565b50505b505050565b600082821c905092915050565b600061188a6000198460080261186c565b1980831691505092915050565b60006118a38383611879565b9150826002028217905092915050565b6118bc82610e62565b67ffffffffffffffff8111156118d5576118d4611157565b5b6118df82546113b4565b6118ea828285611826565b600060209050601f83116001811461191d576000841561190b578287015190505b6119158582611897565b86555061197d565b601f19841661192b86611711565b60005b828110156119535784890151825560018201915060208501945060208101905061192e565b86831015611970578489015161196c601f891682611879565b8355505b6001600288020188555050505b505050505050565b7f5061796d656e74206e6f74207265636569766564207965740000000000000000600082015250565b60006119bb6018836113e5565b91506119c682611985565b602082019050919050565b600060208201905081810360008301526119ea816119ae565b9050919050565b7f416c72656164792064656c697665726564000000000000000000000000000000600082015250565b6000611a276011836113e5565b9150611a32826119f1565b602082019050919050565b60006020820190508181036000830152611a5681611a1a565b9050919050565b7f4e6f74207468652073656c6c6572000000000000000000000000000000000000600082015250565b6000611a93600e836113e5565b9150611a9e82611a5d565b602082019050919050565b60006020820190508181036000830152611ac281611a86565b905091905056fea26469706673582212209573492a09d27d706c0e747b77c9fce4ea8da86263049f2c88c5b197bdb0750364736f6c634300081c0033",
  "linkReferences": {},
  "deployedLinkReferences": {}
}