{
  "_format": "hh-sol-artifact-1",
  "contractName": "NFTManager",
  "address": "0xcaB2C813Ab63ee6c3C0CC90C123228313cd9f0fF",
  "sourceName": "contracts/AddressTransfer.sol",
  "abi": [
    {
      "inputs": [],
      "stateMutability": "nonpayable",
      "type": "constructor"
    },
    {
      "anonymous": false,
      "inputs": [
        {
          "indexed": false,
          "internalType": "string",
          "name": "message",
          "type": "string"
        },
        {
          "indexed": true,
          "internalType": "address",
          "name": "from",
          "type": "address"
        },
        {
          "indexed": true,
          "internalType": "address",
          "name": "to",
          "type": "address"
        },
        {
          "indexed": true,
          "internalType": "uint256",
          "name": "tokenId",
          "type": "uint256"
        }
      ],
      "name": "NFT_Name_Transfer",
      "type": "event"
    },
    {
      "inputs": [
        {
          "internalType": "address",
          "name": "nftContract",
          "type": "address"
        },
        {
          "internalType": "uint256",
          "name": "tokenId",
          "type": "uint256"
        }
      ],
      "name": "NameTransfer",
      "outputs": [],
      "stateMutability": "nonpayable",
      "type": "function"
    },
    {
      "inputs": [],
      "name": "owner",
      "outputs": [
        {
          "internalType": "address",
          "name": "",
          "type": "address"
        }
      ],
      "stateMutability": "view",
      "type": "function"
    }
  ],
  "bytecode": "0x6080604052348015600f57600080fd5b50336000806101000a81548173ffffffffffffffffffffffffffffffffffffffff021916908373ffffffffffffffffffffffffffffffffffffffff1602179055506106fb8061005f6000396000f3fe608060405234801561001057600080fd5b50600436106100365760003560e01c80634ed4beeb1461003b5780638da5cb5b14610057575b600080fd5b6100556004803603810190610050919061043d565b610075565b005b61005f610380565b60405161006c919061048c565b60405180910390f35b60008290503073ffffffffffffffffffffffffffffffffffffffff168173ffffffffffffffffffffffffffffffffffffffff1663081812fc846040518263ffffffff1660e01b81526004016100ca91906104b6565b602060405180830381865afa1580156100e7573d6000803e3d6000fd5b505050506040513d601f19601f8201168201806040525081019061010b91906104e6565b73ffffffffffffffffffffffffffffffffffffffff1614610161576040517f08c379a000000000000000000000000000000000000000000000000000000000815260040161015890610596565b60405180910390fd5b8073ffffffffffffffffffffffffffffffffffffffff166342842e0e3360008054906101000a900473ffffffffffffffffffffffffffffffffffffffff16856040518463ffffffff1660e01b81526004016101be939291906105b6565b600060405180830381600087803b1580156101d857600080fd5b505af11580156101ec573d6000803e3d6000fd5b5050505060008054906101000a900473ffffffffffffffffffffffffffffffffffffffff1673ffffffffffffffffffffffffffffffffffffffff168173ffffffffffffffffffffffffffffffffffffffff16636352211e846040518263ffffffff1660e01b815260040161026091906104b6565b602060405180830381865afa15801561027d573d6000803e3d6000fd5b505050506040513d601f19601f820116820180604052508101906102a191906104e6565b73ffffffffffffffffffffffffffffffffffffffff16146102f7576040517f08c379a00000000000000000000000000000000000000000000000000000000081526004016102ee90610639565b60405180910390fd5b8160008054906101000a900473ffffffffffffffffffffffffffffffffffffffff1673ffffffffffffffffffffffffffffffffffffffff163373ffffffffffffffffffffffffffffffffffffffff167f0208a91145b89d5bad5e088805706214347441919b2c675c081557899a621b5a604051610373906106a5565b60405180910390a4505050565b60008054906101000a900473ffffffffffffffffffffffffffffffffffffffff1681565b600080fd5b600073ffffffffffffffffffffffffffffffffffffffff82169050919050565b60006103d4826103a9565b9050919050565b6103e4816103c9565b81146103ef57600080fd5b50565b600081359050610401816103db565b92915050565b6000819050919050565b61041a81610407565b811461042557600080fd5b50565b60008135905061043781610411565b92915050565b60008060408385031215610454576104536103a4565b5b6000610462858286016103f2565b925050602061047385828601610428565b9150509250929050565b610486816103c9565b82525050565b60006020820190506104a1600083018461047d565b92915050565b6104b081610407565b82525050565b60006020820190506104cb60008301846104a7565b92915050565b6000815190506104e0816103db565b92915050565b6000602082840312156104fc576104fb6103a4565b5b600061050a848285016104d1565b91505092915050565b600082825260208201905092915050565b7f436f6e7472616374206e6f7420617070726f76656420746f207472616e73666560008201527f722074686973204e465400000000000000000000000000000000000000000000602082015250565b6000610580602a83610513565b915061058b82610524565b604082019050919050565b600060208201905081810360008301526105af81610573565b9050919050565b60006060820190506105cb600083018661047d565b6105d8602083018561047d565b6105e560408301846104a7565b949350505050565b7f4e4654207472616e73666572206661696c656400000000000000000000000000600082015250565b6000610623601383610513565b915061062e826105ed565b602082019050919050565b6000602082019050818103600083015261065281610616565b9050919050565b7f4e4654207375636365737366756c6c79207472616e7366657272656400000000600082015250565b600061068f601c83610513565b915061069a82610659565b602082019050919050565b600060208201905081810360008301526106be81610682565b905091905056fea2646970667358221220f1a67689bd8b51dc9de60e8726105c76c24b3d7b3c824f39f52d64493cf98fd864736f6c634300081c0033",
  "linkReferences": {},
  "deployedLinkReferences": {}
}